:100000000C943E000C9450000C9450000C94500042
:100010000C9450000C9450000C9450000C94500020
:100020000C9450000C9450000C9450000C94500010
:100030000C9450000C9450000C9450000C94500000
:100040000C9450000C9450000C9450000C945000F0
:100050000C94A5000C9447010C9476010C9450006C
:100060000C9450000C9450000C9450000C945000D0
:100070000C940A010C94CC000C94FF0011241FBEB8
:10008000CFEFD4E0DEBFCDBF11E0A0E0B1E001C012
:100090001D92A732B107E1F70E9482010C949001F2
:1000A0000C94000090910101E92FF0E0E95FFE4F10
:1000B00080839F5F9F7090930101F8948091040169
:1000C000882329F48091C90080628093C9007894C4
:1000D000089590910301E92FF0E0E95EFE4F8083DF
:1000E0009F5F9F7090930301F8948091050188238E
:1000F00029F48091C10080628093C10078940895B2
:100100008FEF81B912B884B915B887B918B88AEFDA
:100110008AB985E08BB98BE38093CC001092CD0037
:100120001092C8009EE09093CA009CED9093C90085
:100130008093C4001092C5001092C00088ED809397
:10014000C10086E08093C20008951F920F920FB6FF
:100150000F9211242F933F934F935F936F937F934D
:100160008F939F93AF93BF93EF93FF938091C600BC
:1001700090E00E945200FF91EF91BF91AF919F914B
:100180008F917F916F915F914F913F912F910F9040
:100190000FBE0F901F9018951F920F920FB60F92DF
:1001A00011248F939F93EF93FF935C9A8091C900E2
:1001B00081608093C900000080910001E82FF0E089
:1001C000E95FFE4F90819093CE008F5F8F70809398
:1001D000000190910101891721F080910401813083
:1001E00029F48091C9008F7D8093C900FF91EF9120
:1001F0009F918F910F900FBE0F901F9018951F9297
:100200000F920FB60F9211245C980F900FBE0F90B3
:100210001F9018951F920F920FB60F9211242F93D3
:100220003F934F935F936F937F938F939F93AF937E
:10023000BF93EF93FF938091CE0090E00E946900FE
:10024000809106018F5F80930601843079F41092CB
:10025000060110920401909100018091010198170C
:1002600029F08091C90080628093C900FF91EF91CD
:10027000BF91AF919F918F917F916F915F914F91BE
:100280003F912F910F900FBE0F901F9018951F92C6
:100290000F920FB60F9211248F939F93EF93FF93BA
:1002A00080910201E82FF0E0E95EFE4F908190938B
:1002B000C60091E0909305018F5F8F7080930201DB
:1002C00090910301891721F080910501813029F473
:1002D0008091C1008F7D8093C100FF91EF919F912C
:1002E0008F910F900FBE0F901F9018951F920F9235
:1002F0000FB60F921124109205010F900FBE0F90B0
:100300001F901895F8940E9480008FEF9FE5A4E558
:1003100081509040A040E1F700C000007894FFCFEA
:04032000F894FFCF7F
:00000001FF
