:100000000C942A000C9447000C9447000C94470071
:100010000C9447000C9447000C9447000C94470044
:100020000C9447000C9447000C944B030C9447002D
:100030000C9447000C94C8020C940E030C943603E5
:100040000C9447000C9447000C9447000C94470014
:100050000C94470011241FBECFE5D8E0DEBFCDBF12
:1000600010E0A0E6B0E0ECEEFBE002C005900D92DF
:10007000A038B107D9F710E0A0E8B0E001C01D92A8
:10008000AE38B107E1F70E9437050C94F4050C94E3
:10009000000090918400913061F090918200E92FEE
:1000A000F0E0E657FF4F8083892F8F5F8370809346
:1000B00082000895662311F4C09801C0C09AC29AC4
:1000C000EFEFF8E03197F1F700C000001BBA8BBBEF
:1000D000C2988FEF98E00197F1F700C000000895F3
:1000E00061E00E945A0008951F93CF93DF93EC01C3
:1000F00010E003C00E9470001F5FFE01E10FF11DC0
:1001000080818823B9F7DF91CF911F9108951F93C4
:10011000182F80E002C08F5F1A501A30E0F7805D20
:100120000E947000812F805D0E9470001F910895D1
:100130006295660F660F607C680F862F806860E0AE
:100140000E945A0008958FEF96E80197F1F700C0DA
:10015000000088E360E00E945A008FEF93E201976D
:10016000F1F700C0000088E360E00E945A009EE2C0
:100170009A95F1F7000088E360E00E945A008FEF43
:1001800098E00197F1F700C0000088E360E00E946A
:100190005A008FEF98E00197F1F700C000008CE063
:1001A00060E00E945A008FEF98E00197F1F700C0DD
:1001B000000086E060E00E945A008FEF98E001970F
:1001C000F1F700C000000895CF93DF9380E060E076
:1001D0000E949800C0E6D0E0CE010E94740080E04A
:1001E00061E00E949800CE010E947400DF91CF91DF
:1001F0000895DF93CF93CDB7DEB727970FB6F89466
:10020000DEBF0FBECDBF29833A834B835C836D83F2
:100210007E838F83ED81FE81208181E090E00F80DD
:1002200002C0880F991F0A94E2F780952823208343
:10023000E981FA8190819823908381E594E0019788
:10024000F1F700C0000027960FB6F894DEBF0FBE8E
:10025000CDBFCF91DF9108958FEF8ABB1BBA87BBCB
:1002600018BA14BA85BB8EEF81BB81E082BB9BE3D9
:1002700099B910BC8BB98EE880BD8CED8AB90E940B
:10028000A3008DE083BF87E78CBF82E089BF209108
:100290007100309172004091730050917400609130
:1002A000750070917600809177000E94F90020918E
:1002B00078003091790040917A0050917B006091F4
:1002C0007C0070917D0080917E000E94F90008956D
:1002D000DF93CF93CDB7DEB727970FB6F894DEBF85
:1002E0000FBECDBF29833A834B835C836D837E83AE
:1002F0008F83E981FA810FB607FE03C0F89441E0CD
:1003000001C040E0908121E030E0082E02C0220FC1
:10031000331F0A94E2F7922B9083A1E5B4E0119782
:10032000F1F700C000009081209529232083B7EDCC
:10033000BA95F1F70000EB81FC81208130E002C02A
:10034000359527958A95E2F781E020FD80E0E0EB86
:10035000F3E03197F1F700C0442309F07894279631
:100360000FB6F894DEBF0FBECDBFCF91DF910895D9
:10037000DF93CF93CDB7DEB727970FB6F894DEBFE4
:100380000FBECDBF29833A834B835C836D837E830D
:100390008F83E981FA812081382F81E090E0032E5C
:1003A00002C0880F991F0A94E2F7282B208392E15C
:1003B0009A95F1F700C090818095892380838BE125
:1003C0008A95F1F700C0EB81FC81808199EA9A95CA
:1003D000F1F790E002C0959587953A95E2F7817024
:1003E00027960FB6F894DEBF0FBECDBFCF91DF9139
:1003F0000895DF93CF93CDB7DEB727970FB6F89464
:10040000DEBF0FBECDBF29833A834B835C836D83F0
:100410007E838F83E981FA81208181E090E00F80E3
:1004200002C0880F991F0A94E2F7282B208392E1DB
:100430009A95F1F700C0908180958923808384ECA0
:100440008A95F1F700C027960FB6F894DEBF0FBE6D
:10045000CDBFCF91DF910895DF93CF93CDB7DEB7B6
:1004600027970FB6F894DEBF0FBECDBF29833A831E
:100470004B835C836D837E838F83E981FA81208146
:1004800081E090E00F8002C0880F991F0A94E2F784
:10049000282B208398EB9A95F1F7000090818095A6
:1004A000892380838FE18A95F1F727960FB6F89418
:1004B000DEBF0FBECDBFCF91DF9108950F931F9385
:1004C000DF93CF93CDB7DEB727970FB6F894DEBF93
:1004D0000FBECDBF29833A834B835C836D837E83BC
:1004E0008F8310E008E00EC029813A814B815C8146
:1004F0006D817E818F810E94B801879588278795BD
:100500001695182B015080F7812F27960FB6F89477
:10051000DEBF0FBECDBFCF91DF911F910F91089528
:100520000F931F93DF93CF93CDB7DEB727970FB607
:10053000F894DEBF0FBECDBF29833A834B835C8323
:100540006D837E838F8318E016C000FF0AC0298167
:100550003A814B815C816D817E818F810E94F9019E
:1005600009C029813A814B815C816D817E818F81B7
:100570000E942C020695115040F727960FB6F8946A
:10058000DEBF0FBECDBFCF91DF911F910F910895B8
:100590001F920F920FB60F9211242F933F934F93F8
:1005A0005F936F937F938F939F93AF93BF93CF93FB
:1005B000DF93EF93FF939CB1809185009817D9F456
:1005C000C9E4D0E08091860090E0FE010995809119
:1005D000870090E0FE0109958091880090E0FE017F
:1005E00009958091890090E0FE0109955898559AE7
:1005F00081E080938400FF91EF91DF91CF91BF91D3
:10060000AF919F918F917F916F915F914F913F91AA
:100610002F910F900FBE0F901F9018951F920F9261
:100620000FB60F9211248F939F93EF93FF93929A9B
:10063000000080918100E82FF0E0E657FF4F9081A5
:100640009CB98F5F8370809381009091820089179D
:1006500021F45598589A10928400FF91EF919F9140
:100660008F910F900FBE0F901F9018951F920F92B1
:100670000FB60F9211248F939F93909181008091D8
:100680008200981709F492989F918F910F900FBE56
:100690000F901F9018951F920F920FB60F92112472
:1006A000FF920F931F932F933F934F935F936F93FB
:1006B0007F938F939F93AF93BF93EF93FF93DF93BA
:1006C000CF93CDB7DEB72597DEBFCDBF8091800039
:1006D0008F5F80938000883209F0B0C11092800053
:1006E0000E94E400209171003091720040917300EB
:1006F0005091740060917500709176008091770040
:100700000E946801882309F48FC020917100309104
:100710007200409173005091740060917500709167
:100720007600809177000CEC0E949002209171007D
:100730003091720040917300509174006091750087
:1007400070917600809177000EEB0E9490022091CC
:10075000710030917200409173005091740060916B
:10076000750070917600809177000E945E02082FDC
:10077000209171003091720040917300509174008B
:100780006091750070917600809177000E945E0202
:100790000093860080938700382F20E010E0022B22
:1007A000132B17FF05C0109501951F4F91E001C055
:1007B00090E080E060E09D830E9498009D819923F5
:1007C00011F08DE201C08BE20E947000802F8F70CB
:1007D000982F990FF82EFF0CFF0CFF0CF90E94E0E8
:1007E000169507959A95E1F7802F90E08E010F5F9F
:1007F0001F4FB8014AE050E00E94BA050E94740001
:100800008EE20E9470008F2D82958F7090E0B8016B
:100810004AE050E00E94BA050E9474008AE20E94F9
:10082000700083E40E94700020917100309172008A
:100830004091730050917400609175007091760042
:10084000809177000E946801882311F12091710046
:100850003091720040917300509174006091750066
:1008600070917600809177000CEC0E9490022091AC
:10087000710030917200409173005091740060914A
:100880007500709176008091770004E40E949002D8
:10089000209178003091790040917A0050917B004E
:1008A00060917C0070917D0080917E000E946801C3
:1008B000882309F48FC0209178003091790040910D
:1008C0007A0050917B0060917C0070917D00809156
:1008D0007E000CEC0E94900220917800309179000B
:1008E00040917A0050917B0060917C0070917D0076
:1008F00080917E000EEB0E94900220917800309152
:10090000790040917A0050917B0060917C00709159
:100910007D0080917E000E945E02082F2091780069
:100920003091790040917A0050917B0060917C0079
:1009300070917D0080917E000E945E02009388008D
:1009400080938900382F20E010E0022B132B17FF33
:1009500005C0109501951F4F91E001C090E080E027
:1009600061E09D830E9498009D81992311F08DE2A2
:1009700001C08BE20E947000802F8F70982F990F1A
:10098000F82EFF0CFF0CFF0CF90E84E0169507956E
:100990008A95E1F7802F90E08E010F5F1F4FB8011D
:1009A0004AE050E00E94BA050E9474008EE20E9464
:1009B00070008F2D82958F7090E0B8014AE050E072
:1009C0000E94BA050E9474008AE20E94700083E4CB
:1009D0000E947000209178003091790040917A0057
:1009E00050917B0060917C0070917D0080917E0031
:1009F0000E946801882311F12091780030917900DC
:100A000040917A0050917B0060917C0070917D0054
:100A100080917E000CEC0E94900220917800309131
:100A2000790040917A0050917B0060917C00709138
:100A30007D0080917E0004E40E9490022596DEBF36
:100A4000CDBFCF91DF91FF91EF91BF91AF919F917A
:100A50008F917F916F915F914F913F912F911F9156
:100A60000F91FF900F900FBE0F901F9018950F934E
:100A70000E942C0183B380958093850020917100A2
:100A80003091720040917300509174006091750034
:100A900070917600809177000E946801882311F19F
:100AA0002091710030917200409173005091740058
:100AB0006091750070917600809177000CEC0E9437
:100AC000900220917100309172004091730050911A
:100AD000740060917500709176008091770004E455
:100AE0000E9490028FEF9FE1ACE181509040A040C6
:100AF000E1F700C00000209178003091790040912A
:100B00007A0050917B0060917C0070917D00809113
:100B10007E000E946801882311F1209178003091B5
:100B2000790040917A0050917B0060917C00709137
:100B30007D0080917E000CEC0E9490022091780054
:100B40003091790040917A0050917B0060917C0057
:100B500070917D0080917E0004E40E9490028FEFEE
:100B60009FE1ACE181509040A040E1F700C000005F
:100B70007894FFCFFB019F01423074F0453264F45A
:100B8000642F77270E94E005805D8A330CF0895D31
:100B90008193CB010097A1F71082C9010C94D00575
:100BA000DC01FC01672F71917723E1F7329704C0D4
:100BB0007C916D9370836291AE17BF07C8F308955F
:100BC000AA1BBB1B51E107C0AA1FBB1FA617B70773
:100BD00010F0A61BB70B881F991F5A95A9F780958F
:0C0BE0009095BC01CD010895F894FFCF62
:100BEC0020202020202020202020202020202020F9
:100BFC0000310030003200073700360038000700A3
:00000001FF
